{
  "contractName": "SupplyChain",
  "abi": [
    {
      "inputs": [],
      "stateMutability": "nonpayable",
      "type": "constructor"
    },
    {
      "anonymous": false,
      "inputs": [
        {
          "indexed": true,
          "internalType": "uint256",
          "name": "materialId",
          "type": "uint256"
        },
        {
          "indexed": false,
          "internalType": "string",
          "name": "name",
          "type": "string"
        }
      ],
      "name": "MaterialAdded",
      "type": "event"
    },
    {
      "anonymous": false,
      "inputs": [
        {
          "indexed": true,
          "internalType": "uint256",
          "name": "materialId",
          "type": "uint256"
        },
        {
          "indexed": false,
          "internalType": "enum SupplyChain.Stage",
          "name": "newStage",
          "type": "uint8"
        }
      ],
      "name": "MaterialStageUpdated",
      "type": "event"
    },
    {
      "anonymous": false,
      "inputs": [
        {
          "indexed": true,
          "internalType": "address",
          "name": "participant",
          "type": "address"
        },
        {
          "indexed": false,
          "internalType": "string",
          "name": "role",
          "type": "string"
        }
      ],
      "name": "ParticipantAdded",
      "type": "event"
    },
    {
      "anonymous": false,
      "inputs": [
        {
          "indexed": true,
          "internalType": "uint256",
          "name": "materialId",
          "type": "uint256"
        },
        {
          "indexed": false,
          "internalType": "string",
          "name": "trackingId",
          "type": "string"
        }
      ],
      "name": "ShipmentCreated",
      "type": "event"
    },
    {
      "anonymous": false,
      "inputs": [
        {
          "indexed": false,
          "internalType": "string",
          "name": "trackingId",
          "type": "string"
        },
        {
          "indexed": false,
          "internalType": "enum SupplyChain.ShipmentStatus",
          "name": "status",
          "type": "uint8"
        }
      ],
      "name": "ShipmentUpdated",
      "type": "event"
    },
    {
      "anonymous": false,
      "inputs": [
        {
          "indexed": true,
          "internalType": "uint256",
          "name": "materialId",
          "type": "uint256"
        },
        {
          "indexed": false,
          "internalType": "string",
          "name": "action",
          "type": "string"
        },
        {
          "indexed": false,
          "internalType": "address",
          "name": "participant",
          "type": "address"
        }
      ],
      "name": "TransactionRecorded",
      "type": "event"
    },
    {
      "inputs": [
        {
          "internalType": "address",
          "name": "",
          "type": "address"
        }
      ],
      "name": "distributors",
      "outputs": [
        {
          "internalType": "address",
          "name": "addr",
          "type": "address"
        },
        {
          "internalType": "string",
          "name": "name",
          "type": "string"
        },
        {
          "internalType": "string",
          "name": "location",
          "type": "string"
        }
      ],
      "stateMutability": "view",
      "type": "function",
      "constant": true
    },
    {
      "inputs": [
        {
          "internalType": "address",
          "name": "",
          "type": "address"
        }
      ],
      "name": "manufacturers",
      "outputs": [
        {
          "internalType": "address",
          "name": "addr",
          "type": "address"
        },
        {
          "internalType": "string",
          "name": "name",
          "type": "string"
        },
        {
          "internalType": "string",
          "name": "location",
          "type": "string"
        }
      ],
      "stateMutability": "view",
      "type": "function",
      "constant": true
    },
    {
      "inputs": [],
      "name": "materialCounter",
      "outputs": [
        {
          "internalType": "uint256",
          "name": "",
          "type": "uint256"
        }
      ],
      "stateMutability": "view",
      "type": "function",
      "constant": true
    },
    {
      "inputs": [
        {
          "internalType": "uint256",
          "name": "",
          "type": "uint256"
        }
      ],
      "name": "materials",
      "outputs": [
        {
          "internalType": "uint256",
          "name": "id",
          "type": "uint256"
        },
        {
          "internalType": "string",
          "name": "name",
          "type": "string"
        },
        {
          "internalType": "string",
          "name": "description",
          "type": "string"
        },
        {
          "internalType": "address",
          "name": "supplier",
          "type": "address"
        },
        {
          "internalType": "address",
          "name": "manufacturer",
          "type": "address"
        },
        {
          "internalType": "address",
          "name": "distributor",
          "type": "address"
        },
        {
          "internalType": "address",
          "name": "retailer",
          "type": "address"
        },
        {
          "internalType": "enum SupplyChain.Stage",
          "name": "stage",
          "type": "uint8"
        }
      ],
      "stateMutability": "view",
      "type": "function",
      "constant": true
    },
    {
      "inputs": [],
      "name": "owner",
      "outputs": [
        {
          "internalType": "address",
          "name": "",
          "type": "address"
        }
      ],
      "stateMutability": "view",
      "type": "function",
      "constant": true
    },
    {
      "inputs": [
        {
          "internalType": "address",
          "name": "",
          "type": "address"
        }
      ],
      "name": "retailers",
      "outputs": [
        {
          "internalType": "address",
          "name": "addr",
          "type": "address"
        },
        {
          "internalType": "string",
          "name": "name",
          "type": "string"
        },
        {
          "internalType": "string",
          "name": "location",
          "type": "string"
        }
      ],
      "stateMutability": "view",
      "type": "function",
      "constant": true
    },
    {
      "inputs": [
        {
          "internalType": "string",
          "name": "",
          "type": "string"
        }
      ],
      "name": "shipments",
      "outputs": [
        {
          "internalType": "uint256",
          "name": "materialId",
          "type": "uint256"
        },
        {
          "internalType": "address",
          "name": "sender",
          "type": "address"
        },
        {
          "internalType": "address",
          "name": "receiver",
          "type": "address"
        },
        {
          "internalType": "string",
          "name": "trackingId",
          "type": "string"
        },
        {
          "internalType": "enum SupplyChain.ShipmentStatus",
          "name": "status",
          "type": "uint8"
        }
      ],
      "stateMutability": "view",
      "type": "function",
      "constant": true
    },
    {
      "inputs": [
        {
          "internalType": "address",
          "name": "",
          "type": "address"
        }
      ],
      "name": "suppliers",
      "outputs": [
        {
          "internalType": "address",
          "name": "addr",
          "type": "address"
        },
        {
          "internalType": "string",
          "name": "name",
          "type": "string"
        },
        {
          "internalType": "string",
          "name": "location",
          "type": "string"
        }
      ],
      "stateMutability": "view",
      "type": "function",
      "constant": true
    },
    {
      "inputs": [
        {
          "internalType": "uint256",
          "name": "",
          "type": "uint256"
        }
      ],
      "name": "transactions",
      "outputs": [
        {
          "internalType": "uint256",
          "name": "materialId",
          "type": "uint256"
        },
        {
          "internalType": "address",
          "name": "participant",
          "type": "address"
        },
        {
          "internalType": "string",
          "name": "action",
          "type": "string"
        },
        {
          "internalType": "uint256",
          "name": "timestamp",
          "type": "uint256"
        }
      ],
      "stateMutability": "view",
      "type": "function",
      "constant": true
    },
    {
      "inputs": [
        {
          "internalType": "address",
          "name": "newOwner",
          "type": "address"
        }
      ],
      "name": "transferOwnership",
      "outputs": [],
      "stateMutability": "nonpayable",
      "type": "function"
    },
    {
      "inputs": [
        {
          "internalType": "string",
          "name": "_name",
          "type": "string"
        },
        {
          "internalType": "string",
          "name": "_description",
          "type": "string"
        }
      ],
      "name": "addMaterial",
      "outputs": [],
      "stateMutability": "nonpayable",
      "type": "function"
    },
    {
      "inputs": [
        {
          "internalType": "address",
          "name": "_addr",
          "type": "address"
        },
        {
          "internalType": "string",
          "name": "_name",
          "type": "string"
        },
        {
          "internalType": "string",
          "name": "_location",
          "type": "string"
        }
      ],
      "name": "addSupplier",
      "outputs": [],
      "stateMutability": "nonpayable",
      "type": "function"
    },
    {
      "inputs": [
        {
          "internalType": "address",
          "name": "_addr",
          "type": "address"
        },
        {
          "internalType": "string",
          "name": "_name",
          "type": "string"
        },
        {
          "internalType": "string",
          "name": "_location",
          "type": "string"
        }
      ],
      "name": "addManufacturer",
      "outputs": [],
      "stateMutability": "nonpayable",
      "type": "function"
    },
    {
      "inputs": [
        {
          "internalType": "address",
          "name": "_addr",
          "type": "address"
        },
        {
          "internalType": "string",
          "name": "_name",
          "type": "string"
        },
        {
          "internalType": "string",
          "name": "_location",
          "type": "string"
        }
      ],
      "name": "addDistributor",
      "outputs": [],
      "stateMutability": "nonpayable",
      "type": "function"
    },
    {
      "inputs": [
        {
          "internalType": "address",
          "name": "_addr",
          "type": "address"
        },
        {
          "internalType": "string",
          "name": "_name",
          "type": "string"
        },
        {
          "internalType": "string",
          "name": "_location",
          "type": "string"
        }
      ],
      "name": "addRetailer",
      "outputs": [],
      "stateMutability": "nonpayable",
      "type": "function"
    },
    {
      "inputs": [
        {
          "internalType": "uint256",
          "name": "_materialID",
          "type": "uint256"
        }
      ],
      "name": "supplyRawMaterials",
      "outputs": [],
      "stateMutability": "nonpayable",
      "type": "function"
    },
    {
      "inputs": [
        {
          "internalType": "uint256",
          "name": "_materialID",
          "type": "uint256"
        }
      ],
      "name": "manufactureMaterial",
      "outputs": [],
      "stateMutability": "nonpayable",
      "type": "function"
    },
    {
      "inputs": [
        {
          "internalType": "uint256",
          "name": "_materialID",
          "type": "uint256"
        }
      ],
      "name": "distributeMaterial",
      "outputs": [],
      "stateMutability": "nonpayable",
      "type": "function"
    },
    {
      "inputs": [
        {
          "internalType": "uint256",
          "name": "_materialID",
          "type": "uint256"
        }
      ],
      "name": "retailMaterial",
      "outputs": [],
      "stateMutability": "nonpayable",
      "type": "function"
    },
    {
      "inputs": [
        {
          "internalType": "uint256",
          "name": "_materialID",
          "type": "uint256"
        }
      ],
      "name": "sellMaterial",
      "outputs": [],
      "stateMutability": "nonpayable",
      "type": "function"
    },
    {
      "inputs": [
        {
          "internalType": "uint256",
          "name": "_materialID",
          "type": "uint256"
        }
      ],
      "name": "getMaterialStage",
      "outputs": [
        {
          "internalType": "string",
          "name": "",
          "type": "string"
        }
      ],
      "stateMutability": "view",
      "type": "function",
      "constant": true
    },
    {
      "inputs": [
        {
          "internalType": "uint256",
          "name": "_materialID",
          "type": "uint256"
        },
        {
          "internalType": "address",
          "name": "_receiver",
          "type": "address"
        },
        {
          "internalType": "string",
          "name": "_trackingId",
          "type": "string"
        }
      ],
      "name": "createShipment",
      "outputs": [],
      "stateMutability": "nonpayable",
      "type": "function"
    },
    {
      "inputs": [
        {
          "internalType": "string",
          "name": "_trackingId",
          "type": "string"
        },
        {
          "internalType": "enum SupplyChain.ShipmentStatus",
          "name": "_status",
          "type": "uint8"
        }
      ],
      "name": "updateShipmentStatus",
      "outputs": [],
      "stateMutability": "nonpayable",
      "type": "function"
    },
    {
      "inputs": [],
      "name": "getTransactions",
      "outputs": [
        {
          "components": [
            {
              "internalType": "uint256",
              "name": "materialId",
              "type": "uint256"
            },
            {
              "internalType": "address",
              "name": "participant",
              "type": "address"
            },
            {
              "internalType": "string",
              "name": "action",
              "type": "string"
            },
            {
              "internalType": "uint256",
              "name": "timestamp",
              "type": "uint256"
            }
          ],
          "internalType": "struct SupplyChain.Transaction[]",
          "name": "",
          "type": "tuple[]"
        }
      ],
      "stateMutability": "view",
      "type": "function",
      "constant": true
    }
  ],
  "bytecode": "0x608060405234801561001057600080fd5b50600080546001600160a01b0319163317905561235e806100326000396000f3fe608060405234801561001057600080fd5b50600436106101585760003560e01c80639a268f35116100c3578063cc6427841161007c578063cc6427841461032d578063ce90ceff14610340578063e7d5c46a14610353578063ee32c28e14610366578063f2fde38b14610379578063f83e18511461038c57600080fd5b80639a268f351461029e5780639ace38c2146102b1578063a288bb9e146102d4578063b5f49bba146102e7578063b5fabfda146102fa578063bad2b9ec1461030d57600080fd5b80637a8e8526116101155780637a8e8526146101fa57806383920e901461022157806383e32b3f14610236578063857ddb041461024d5780638da5cb5b146102605780638e2700811461028b57600080fd5b80630ec6da9f1461015d57806316dc15fe146101725780632a4af4401461019d5780635ceaef5b146101b05780636a992c9f146101d45780636b5eb09c146101e7575b600080fd5b61017061016b366004611b99565b61039f565b005b610185610180366004611bce565b6104eb565b60405161019493929190611c40565b60405180910390f35b6101706101ab366004611d23565b610628565b6101c36101be366004611d97565b61071a565b604051610194959493929190611dfe565b6101706101e2366004611d23565b6107ed565b6101856101f5366004611bce565b6108d3565b61020d610208366004611b99565b6108ff565b604051610194989796959493929190611e4f565b610229610a66565b6040516101949190611ec2565b61023f60085481565b604051908152602001610194565b61017061025b366004611d23565b610b81565b600054610273906001600160a01b031681565b6040516001600160a01b039091168152602001610194565b610170610299366004611f59565b610c63565b6101856102ac366004611bce565b610dfd565b6102c46102bf366004611b99565b610e29565b6040516101949493929190611fbd565b6101706102e2366004611b99565b610ef8565b6101706102f5366004611b99565b611043565b610170610308366004611d23565b611180565b61032061031b366004611b99565b611262565b6040516101949190611ff8565b61018561033b366004611bce565b6114f7565b61017061034e36600461200b565b611523565b610170610361366004612058565b611693565b610170610374366004611b99565b61178b565b610170610387366004611bce565b6118ce565b61017061039a366004611b99565b611962565b336000908152600360205260409020546001600160a01b03166104095760405162461bcd60e51b815260206004820152601d60248201527f4e6f7420612072656769737465726564206d616e75666163747572657200000060448201526064015b60405180910390fd5b6001600082815260016020526040902060060154600160a01b900460ff16600581111561043857610438611dd4565b146104555760405162461bcd60e51b8152600401610400906120ae565b60008181526001602052604090206004810180546001600160a01b0319163317905560060180546002919060ff60a01b1916600160a01b8302179055508060008051602061230983398151915260026040516104b191906120d5565b60405180910390a26104e8816040518060400160405280600c81526020016b13585b9d599858dd1d5c995960a21b81525033611a85565b50565b600260205260009081526040902080546001820180546001600160a01b039092169291610517906120e9565b80601f0160208091040260200160405190810160405280929190818152602001828054610543906120e9565b80156105905780601f1061056557610100808354040283529160200191610590565b820191906000526020600020905b81548152906001019060200180831161057357829003601f168201915b5050505050908060020180546105a5906120e9565b80601f01602080910402602001604051908101604052809291908181526020018280546105d1906120e9565b801561061e5780601f106105f35761010080835404028352916020019161061e565b820191906000526020600020905b81548152906001019060200180831161060157829003601f168201915b5050505050905083565b6000546001600160a01b031633146106525760405162461bcd60e51b815260040161040090612123565b604080516060810182526001600160a01b03858116808352602080840187815284860187905260009283526004909152939020825181546001600160a01b0319169216919091178155915190919060018201906106af9082612199565b50604082015160028201906106c49082612199565b50905050826001600160a01b03166000805160206122e983398151915260405161070d906020808252600b908201526a2234b9ba3934b13aba37b960a91b604082015260600190565b60405180910390a2505050565b8051602081830181018051600682529282019190930120915280546001820154600283015460038401805493946001600160a01b03938416949390921692610761906120e9565b80601f016020809104026020016040519081016040528092919081815260200182805461078d906120e9565b80156107da5780601f106107af576101008083540402835291602001916107da565b820191906000526020600020905b8154815290600101906020018083116107bd57829003601f168201915b5050506004909301549192505060ff1685565b6000546001600160a01b031633146108175760405162461bcd60e51b815260040161040090612123565b604080516060810182526001600160a01b03858116808352602080840187815284860187905260009283526003909152939020825181546001600160a01b0319169216919091178155915190919060018201906108749082612199565b50604082015160028201906108899082612199565b50905050826001600160a01b03166000805160206122e983398151915260405161070d906020808252600c908201526b26b0b73ab330b1ba3ab932b960a11b604082015260600190565b600360205260009081526040902080546001820180546001600160a01b039092169291610517906120e9565b600160208190526000918252604090912080549181018054610920906120e9565b80601f016020809104026020016040519081016040528092919081815260200182805461094c906120e9565b80156109995780601f1061096e57610100808354040283529160200191610999565b820191906000526020600020905b81548152906001019060200180831161097c57829003601f168201915b5050505050908060020180546109ae906120e9565b80601f01602080910402602001604051908101604052809291908181526020018280546109da906120e9565b8015610a275780601f106109fc57610100808354040283529160200191610a27565b820191906000526020600020905b815481529060010190602001808311610a0a57829003601f168201915b5050505060038301546004840154600585015460069095015493946001600160a01b03928316949183169350821691811690600160a01b900460ff1688565b60606007805480602002602001604051908101604052809291908181526020016000905b82821015610b7857600084815260209081902060408051608081018252600486029092018054835260018101546001600160a01b03169383019390935260028301805492939291840191610add906120e9565b80601f0160208091040260200160405190810160405280929190818152602001828054610b09906120e9565b8015610b565780601f10610b2b57610100808354040283529160200191610b56565b820191906000526020600020905b815481529060010190602001808311610b3957829003601f168201915b5050505050815260200160038201548152505081526020019060010190610a8a565b50505050905090565b6000546001600160a01b03163314610bab5760405162461bcd60e51b815260040161040090612123565b604080516060810182526001600160a01b03858116808352602080840187815284860187905260009283526005909152939020825181546001600160a01b031916921691909117815591519091906001820190610c089082612199565b5060408201516002820190610c1d9082612199565b50905050826001600160a01b03166000805160206122e983398151915260405161070d906020808252600890820152672932ba30b4b632b960c11b604082015260600190565b6000546001600160a01b03163314610c8d5760405162461bcd60e51b815260040161040090612123565b60088054906000610c9d83612259565b909155505060408051610100810182526008548152602081018490529081018290526000606082018190526080820181905260a0820181905260c0820181905260e08201526008546000908152600160208181526040909220835181559183015190820190610d0c9082612199565b5060408201516002820190610d219082612199565b5060608201516003820180546001600160a01b03199081166001600160a01b03938416179091556080840151600484018054831691841691909117905560a08401516005808501805484169285169290921790915560c085015160068501805493841691909416908117845560e086015193926001600160a81b0319161790600160a01b908490811115610db757610db7611dd4565b02179055509050506008547ff5b4def5973d014960ead91323c90ae13e6dd9fc1b7eed2de3a4dccf2422ecbe83604051610df19190611ff8565b60405180910390a25050565b600560205260009081526040902080546001820180546001600160a01b039092169291610517906120e9565b60078181548110610e3957600080fd5b60009182526020909120600490910201805460018201546002830180549294506001600160a01b039091169291610e6f906120e9565b80601f0160208091040260200160405190810160405280929190818152602001828054610e9b906120e9565b8015610ee85780601f10610ebd57610100808354040283529160200191610ee8565b820191906000526020600020905b815481529060010190602001808311610ecb57829003601f168201915b5050505050908060030154905084565b336000908152600260205260409020546001600160a01b0316610f5d5760405162461bcd60e51b815260206004820152601960248201527f4e6f742061207265676973746572656420737570706c696572000000000000006044820152606401610400565b60008082815260016020526040902060060154600160a01b900460ff166005811115610f8b57610f8b611dd4565b14610fa85760405162461bcd60e51b8152600401610400906120ae565b60008181526001602081905260409091206003810180546001600160a01b03191633179055600601805460ff60a01b1916600160a01b83021790555080600080516020612309833981519152600160405161100391906120d5565b60405180910390a26104e8816040518060400160405280601581526020017414985dc813585d195c9a585b0814dd5c1c1b1a5959605a1b81525033611a85565b336000908152600560205260409020546001600160a01b03166110a85760405162461bcd60e51b815260206004820152601960248201527f4e6f74206120726567697374657265642072657461696c6572000000000000006044820152606401610400565b6003600082815260016020526040902060060154600160a01b900460ff1660058111156110d7576110d7611dd4565b146110f45760405162461bcd60e51b8152600401610400906120ae565b6000818152600160205260409081902060060180546001600160a81b0319163360ff60a01b191617600160a21b17905551819060008051602061230983398151915290611143906004906120d5565b60405180910390a26104e88160405180604001604052806012815260200171417661696c61626c6520666f722053616c6560701b81525033611a85565b6000546001600160a01b031633146111aa5760405162461bcd60e51b815260040161040090612123565b604080516060810182526001600160a01b03858116808352602080840187815284860187905260009283526002909152939020825181546001600160a01b0319169216919091178155915190919060018201906112079082612199565b506040820151600282019061121c9082612199565b50905050826001600160a01b03166000805160206122e983398151915260405161070d9060208082526008908201526729bab8383634b2b960c11b604082015260600190565b606060008211801561127657506008548211155b6112b85760405162461bcd60e51b8152602060048201526013602482015272125b9d985b1a59081b585d195c9a585b081251606a1b6044820152606401610400565b60008083815260016020526040902060060154600160a01b900460ff1660058111156112e6576112e6611dd4565b0361130e57505060408051808201909152600781526613dc99195c995960ca1b602082015290565b6001600083815260016020526040902060060154600160a01b900460ff16600581111561133d5761133d611dd4565b0361137357505060408051808201909152601581527414985dc813585d195c9a585b0814dd5c1c1b1a5959605a1b602082015290565b6002600083815260016020526040902060060154600160a01b900460ff1660058111156113a2576113a2611dd4565b036113cf57505060408051808201909152600c81526b13585b9d599858dd1d5c995960a21b602082015290565b6003600083815260016020526040902060060154600160a01b900460ff1660058111156113fe576113fe611dd4565b0361142a57505060408051808201909152600b81526a111a5cdd1c9a589d5d195960aa1b602082015290565b6004600083815260016020526040902060060154600160a01b900460ff16600581111561145957611459611dd4565b0361148057505060408051808201909152600681526514995d185a5b60d21b602082015290565b6005600083815260016020526040902060060154600160a01b900460ff1660058111156114af576114af611dd4565b036114d457505060408051808201909152600481526314dbdb1960e21b602082015290565b50506040805180820190915260078152662ab735b737bbb760c91b602082015290565b600460205260009081526040902080546001820180546001600160a01b039092169291610517906120e9565b6000838152600160205260409020600501546001600160a01b031633146115985760405162461bcd60e51b8152602060048201526024808201527f4f6e6c79206469737472696275746f722063616e2063726561746520736869706044820152631b595b9d60e21b6064820152608401610400565b6040805160a0810182528481523360208201526001600160a01b03841681830152606081018390526000608082015290516006906115d7908490612280565b908152604080516020928190038301902083518155918301516001830180546001600160a01b03199081166001600160a01b0393841617909155918401516002840180549093169116179055606082015160038201906116379082612199565b50608082015160048201805460ff1916600183600281111561165b5761165b611dd4565b0217905550905050827f492580d8002217ac680e66d4bdd4e8c7ff35808636c281021617b4ca690820518260405161070d9190611ff8565b60006001600160a01b03166006836040516116ae9190612280565b908152604051908190036020019020600101546001600160a01b03160361170c5760405162461bcd60e51b815260206004820152601260248201527114da1a5c1b595b9d081b9bdd08199bdd5b9960721b6044820152606401610400565b8060068360405161171d9190612280565b908152604051908190036020019020600401805460ff1916600183600281111561174957611749611dd4565b02179055507fae57594f667ede24d3c11b1074a763a20137755617ed4ddbcc470c13d6a0e08d828260405161177f92919061229c565b60405180910390a15050565b336000908152600460205260409020546001600160a01b03166117f05760405162461bcd60e51b815260206004820152601c60248201527f4e6f7420612072656769737465726564206469737472696275746f72000000006044820152606401610400565b6002600082815260016020526040902060060154600160a01b900460ff16600581111561181f5761181f611dd4565b1461183c5760405162461bcd60e51b8152600401610400906120ae565b60008181526001602052604090206005810180546001600160a01b0319163317905560060180546003919060ff60a01b1916600160a01b83021790555080600080516020612309833981519152600360405161189891906120d5565b60405180910390a26104e8816040518060400160405280600b81526020016a111a5cdd1c9a589d5d195960aa1b81525033611a85565b6000546001600160a01b031633146118f85760405162461bcd60e51b815260040161040090612123565b6001600160a01b0381166119405760405162461bcd60e51b815260206004820152600f60248201526e496e76616c6964206164647265737360881b6044820152606401610400565b600080546001600160a01b0319166001600160a01b0392909216919091179055565b6000818152600160205260409020600601546001600160a01b031633146119cb5760405162461bcd60e51b815260206004820152601960248201527f4e6f74207468652061737369676e65642072657461696c6572000000000000006044820152606401610400565b6004600082815260016020526040902060060154600160a01b900460ff1660058111156119fa576119fa611dd4565b14611a175760405162461bcd60e51b8152600401610400906120ae565b60008181526001602052604090819020600601805460ff60a01b1916600560a01b17905551819060008051602061230983398151915290611a5a906005906120d5565b60405180910390a26104e8816040518060400160405280600481526020016314dbdb1960e21b815250335b604080516080810182528481526001600160a01b03838116602083019081529282018581524260608401526007805460018101825560009190915283517fa66cc928b5edb82af9bd49922954155ab7b0942694bea4ce44661d9a8736c688600490920291820190815594517fa66cc928b5edb82af9bd49922954155ab7b0942694bea4ce44661d9a8736c689820180546001600160a01b0319169190941617909255519192917fa66cc928b5edb82af9bd49922954155ab7b0942694bea4ce44661d9a8736c68a90910190611b5a9082612199565b50606082015181600301555050827f0a64252f3b82f7e56a5062061bc724525ad4b4aeeb69f1dc73857fbb8d816bd8838360405161070d9291906122be565b600060208284031215611bab57600080fd5b5035919050565b80356001600160a01b0381168114611bc957600080fd5b919050565b600060208284031215611be057600080fd5b611be982611bb2565b9392505050565b60005b83811015611c0b578181015183820152602001611bf3565b50506000910152565b60008151808452611c2c816020860160208601611bf0565b601f01601f19169290920160200192915050565b6001600160a01b0384168152606060208201819052600090611c6490830185611c14565b8281036040840152611c768185611c14565b9695505050505050565b634e487b7160e01b600052604160045260246000fd5b600082601f830112611ca757600080fd5b813567ffffffffffffffff80821115611cc257611cc2611c80565b604051601f8301601f19908116603f01168101908282118183101715611cea57611cea611c80565b81604052838152866020858801011115611d0357600080fd5b836020870160208301376000602085830101528094505050505092915050565b600080600060608486031215611d3857600080fd5b611d4184611bb2565b9250602084013567ffffffffffffffff80821115611d5e57600080fd5b611d6a87838801611c96565b93506040860135915080821115611d8057600080fd5b50611d8d86828701611c96565b9150509250925092565b600060208284031215611da957600080fd5b813567ffffffffffffffff811115611dc057600080fd5b611dcc84828501611c96565b949350505050565b634e487b7160e01b600052602160045260246000fd5b60038110611dfa57611dfa611dd4565b9052565b8581526001600160a01b0385811660208301528416604082015260a060608201819052600090611e3090830185611c14565b9050611c766080830184611dea565b60068110611dfa57611dfa611dd4565b60006101008a8352806020840152611e698184018b611c14565b90508281036040840152611e7d818a611c14565b6001600160a01b038981166060860152888116608086015287811660a0860152861660c08501529150611eb5905060e0830184611e3f565b9998505050505050505050565b60006020808301818452808551808352604092508286019150828160051b87010184880160005b83811015611f4b57888303603f19018552815180518452878101516001600160a01b03168885015286810151608088860181905290611f2a82870182611c14565b60609384015196909301959095525094870194925090860190600101611ee9565b509098975050505050505050565b60008060408385031215611f6c57600080fd5b823567ffffffffffffffff80821115611f8457600080fd5b611f9086838701611c96565b93506020850135915080821115611fa657600080fd5b50611fb385828601611c96565b9150509250929050565b8481526001600160a01b0384166020820152608060408201819052600090611fe790830185611c14565b905082606083015295945050505050565b602081526000611be96020830184611c14565b60008060006060848603121561202057600080fd5b8335925061203060208501611bb2565b9150604084013567ffffffffffffffff81111561204c57600080fd5b611d8d86828701611c96565b6000806040838503121561206b57600080fd5b823567ffffffffffffffff81111561208257600080fd5b61208e85828601611c96565b9250506020830135600381106120a357600080fd5b809150509250929050565b6020808252600d908201526c496e76616c696420737461676560981b604082015260600190565b602081016120e38284611e3f565b92915050565b600181811c908216806120fd57607f821691505b60208210810361211d57634e487b7160e01b600052602260045260246000fd5b50919050565b6020808252600d908201526c2737ba103a34329037bbb732b960991b604082015260600190565b601f82111561219457600081815260208120601f850160051c810160208610156121715750805b601f850160051c820191505b818110156121905782815560010161217d565b5050505b505050565b815167ffffffffffffffff8111156121b3576121b3611c80565b6121c7816121c184546120e9565b8461214a565b602080601f8311600181146121fc57600084156121e45750858301515b600019600386901b1c1916600185901b178555612190565b600085815260208120601f198616915b8281101561222b5788860151825594840194600190910190840161220c565b50858210156122495787850151600019600388901b60f8161c191681555b5050505050600190811b01905550565b60006001820161227957634e487b7160e01b600052601160045260246000fd5b5060010190565b60008251612292818460208701611bf0565b9190910192915050565b6040815260006122af6040830185611c14565b9050611be96020830184611dea565b6040815260006122d16040830185611c14565b905060018060a01b0383166020830152939250505056fe54d9fcf3da31043daf69e0a8ad35eaf7cfae552733f792dc3d95805eb45bfec297b11efb5faec8efd9e24b403091a06288fa55a7a2435eaa9c4f12caa51dc708a2646970667358221220a6fbbab0059d226aaac58707976f4ad9f0c42b5bf3ce82b346b7a30359f20b1c64736f6c63430008140033",
  "immutableReferences": {},
  "source": "// SPDX-License-Identifier: MIT\npragma solidity ^0.8.20;\n\ncontract SupplyChain {\n    address public owner;  // Contract owner\n\n    constructor() {\n        owner = msg.sender;  // Set deployer as owner\n    }\n\n    // Modifier to allow only the owner to execute certain functions\n    modifier onlyOwner() {\n        require(msg.sender == owner, \"Not the owner\");\n        _;\n    }\n\n    // Transfer ownership to another address (if needed)\n    function transferOwnership(address newOwner) public onlyOwner {\n        require(newOwner != address(0), \"Invalid address\");\n        owner = newOwner;\n    }\n\n    // Enum to represent different supply chain stages\n    enum Stage {\n        Ordered,\n        RawMaterialSupplied,\n        Manufactured,\n        Distributed,\n        Retail,\n        Sold\n    }\n\n    // Enum to represent shipment status\n    enum ShipmentStatus {\n        Pending,\n        InTransit,\n        Delivered\n    }\n\n    // Structure to store details of a material\n    struct Material {\n        uint256 id;\n        string name;\n        string description;\n        address supplier;\n        address manufacturer;\n        address distributor;\n        address retailer;\n        Stage stage;\n    }\n\n    // Structure for supply chain participants\n    struct Participant {\n        address addr;\n        string name;\n        string location;\n    }\n\n    // Structure for shipment tracking\n    struct Shipment {\n        uint256 materialId;\n        address sender;\n        address receiver;\n        string trackingId;\n        ShipmentStatus status;\n    }\n\n    // Structure for transaction tracking\n    struct Transaction {\n        uint256 materialId;\n        address participant;\n        string action;\n        uint256 timestamp;\n    }\n\n    // Mappings to store data\n    mapping(uint256 => Material) public materials;\n    mapping(address => Participant) public suppliers;\n    mapping(address => Participant) public manufacturers;\n    mapping(address => Participant) public distributors;\n    mapping(address => Participant) public retailers;\n    mapping(string => Shipment) public shipments;\n    Transaction[] public transactions;\n\n    // Counters to assign unique IDs\n    uint256 public materialCounter;\n\n    // Events\n    event MaterialAdded(uint256 indexed materialId, string name);\n    event ParticipantAdded(address indexed participant, string role);\n    event MaterialStageUpdated(uint256 indexed materialId, Stage newStage);\n    event ShipmentCreated(uint256 indexed materialId, string trackingId);\n    event ShipmentUpdated(string trackingId, ShipmentStatus status);\n    event TransactionRecorded(uint256 indexed materialId, string action, address participant);\n\n    // Add new material (only owner)\n    function addMaterial(string memory _name, string memory _description) public onlyOwner {\n        materialCounter++;\n        materials[materialCounter] = Material(\n            materialCounter,\n            _name,\n            _description,\n            address(0),  // No supplier assigned yet\n            address(0),  // No manufacturer assigned yet\n            address(0),  // No distributor assigned yet\n            address(0),  // No retailer assigned yet\n            Stage.Ordered\n        );\n\n        emit MaterialAdded(materialCounter, _name);\n    }\n\n    // Register supply chain participants (only owner)\n    function addSupplier(address _addr, string memory _name, string memory _location) public onlyOwner {\n        suppliers[_addr] = Participant(_addr, _name, _location);\n        emit ParticipantAdded(_addr, \"Supplier\");\n    }\n\n    function addManufacturer(address _addr, string memory _name, string memory _location) public onlyOwner {\n        manufacturers[_addr] = Participant(_addr, _name, _location);\n        emit ParticipantAdded(_addr, \"Manufacturer\");\n    }\n\n    function addDistributor(address _addr, string memory _name, string memory _location) public onlyOwner {\n        distributors[_addr] = Participant(_addr, _name, _location);\n        emit ParticipantAdded(_addr, \"Distributor\");\n    }\n\n    function addRetailer(address _addr, string memory _name, string memory _location) public onlyOwner {\n        retailers[_addr] = Participant(_addr, _name, _location);\n        emit ParticipantAdded(_addr, \"Retailer\");\n    }\n\n    // Supply raw materials (Only Supplier)\n    function supplyRawMaterials(uint256 _materialID) public {\n        require(suppliers[msg.sender].addr != address(0), \"Not a registered supplier\");\n        require(materials[_materialID].stage == Stage.Ordered, \"Invalid stage\");\n        materials[_materialID].supplier = msg.sender;\n        materials[_materialID].stage = Stage.RawMaterialSupplied;\n\n        emit MaterialStageUpdated(_materialID, Stage.RawMaterialSupplied);\n        recordTransaction(_materialID, \"Raw Material Supplied\", msg.sender);\n    }\n\n    // Manufacture material (Only Manufacturer)\n    function manufactureMaterial(uint256 _materialID) public {\n        require(manufacturers[msg.sender].addr != address(0), \"Not a registered manufacturer\");\n        require(materials[_materialID].stage == Stage.RawMaterialSupplied, \"Invalid stage\");\n        materials[_materialID].manufacturer = msg.sender;\n        materials[_materialID].stage = Stage.Manufactured;\n\n        emit MaterialStageUpdated(_materialID, Stage.Manufactured);\n        recordTransaction(_materialID, \"Manufactured\", msg.sender);\n    }\n\n    // Distribute material (Only Distributor)\n    function distributeMaterial(uint256 _materialID) public {\n        require(distributors[msg.sender].addr != address(0), \"Not a registered distributor\");\n        require(materials[_materialID].stage == Stage.Manufactured, \"Invalid stage\");\n        materials[_materialID].distributor = msg.sender;\n        materials[_materialID].stage = Stage.Distributed;\n\n        emit MaterialStageUpdated(_materialID, Stage.Distributed);\n        recordTransaction(_materialID, \"Distributed\", msg.sender);\n    }\n\n    // Retail material (Only Retailer)\n    function retailMaterial(uint256 _materialID) public {\n        require(retailers[msg.sender].addr != address(0), \"Not a registered retailer\");\n        require(materials[_materialID].stage == Stage.Distributed, \"Invalid stage\");\n        materials[_materialID].retailer = msg.sender;\n        materials[_materialID].stage = Stage.Retail;\n\n        emit MaterialStageUpdated(_materialID, Stage.Retail);\n        recordTransaction(_materialID, \"Available for Sale\", msg.sender);\n    }\n\n    // Mark material as sold (Only assigned retailer)\n    function sellMaterial(uint256 _materialID) public {\n        require(materials[_materialID].retailer == msg.sender, \"Not the assigned retailer\");\n        require(materials[_materialID].stage == Stage.Retail, \"Invalid stage\");\n        materials[_materialID].stage = Stage.Sold;\n\n        emit MaterialStageUpdated(_materialID, Stage.Sold);\n        recordTransaction(_materialID, \"Sold\", msg.sender);\n    }\n\n    // Get current stage of material\n    function getMaterialStage(uint256 _materialID) public view returns (string memory) {\n        require(_materialID > 0 && _materialID <= materialCounter, \"Invalid material ID\");\n\n        if (materials[_materialID].stage == Stage.Ordered) return \"Ordered\";\n        if (materials[_materialID].stage == Stage.RawMaterialSupplied) return \"Raw Material Supplied\";\n        if (materials[_materialID].stage == Stage.Manufactured) return \"Manufactured\";\n        if (materials[_materialID].stage == Stage.Distributed) return \"Distributed\";\n        if (materials[_materialID].stage == Stage.Retail) return \"Retail\";\n        if (materials[_materialID].stage == Stage.Sold) return \"Sold\";\n\n        return \"Unknown\";\n    }\n\n    // Create a shipment\n    function createShipment(uint256 _materialID, address _receiver, string memory _trackingId) public {\n        require(materials[_materialID].distributor == msg.sender, \"Only distributor can create shipment\");\n        shipments[_trackingId] = Shipment(_materialID, msg.sender, _receiver, _trackingId, ShipmentStatus.Pending);\n\n        emit ShipmentCreated(_materialID, _trackingId);\n    }\n\n    // Update shipment status\n    function updateShipmentStatus(string memory _trackingId, ShipmentStatus _status) public {\n        require(shipments[_trackingId].sender != address(0), \"Shipment not found\");\n        shipments[_trackingId].status = _status;\n\n        emit ShipmentUpdated(_trackingId, _status);\n    }\n\n    // Get transaction history\n    function getTransactions() public view returns (Transaction[] memory) {\n        return transactions;\n    }\n\n    // Record transaction\n    function recordTransaction(uint256 _materialID, string memory _action, address _participant) internal {\n        transactions.push(Transaction(_materialID, _participant, _action, block.timestamp));\n        emit TransactionRecorded(_materialID, _action, _participant);\n    }\n}",
  "sourcePath": "/home/a/Documents/GG/Supply-Chain-Management/contracts/SupplyChain.sol",
  "compiler": {
    "name": "solc",
    "version": "0.8.20+commit.a1b79de6.Emscripten.clang"
  },
  "schemaVersion": "3.4.16",
  "updatedAt": "2025-09-17T09:27:49.358Z",
  "networkType": "ethereum",
  "devdoc": {
    "kind": "dev",
    "methods": {},
    "version": 1
  },
  "userdoc": {
    "kind": "user",
    "methods": {},
    "version": 1
  }
}